let arr = [
  {
    address: 'n3SEsMgHnqsaJT5uPipjRMXC4EzNUsKN6B',
    email: 'pefovi5818@testbnk.comee3532ffffdfdfdxdsf',
    notificationStatus: 'ALL',
    notificationDestination: 'INTERNAL'
  },
  {
    address: 'mic54R1mfEY3keWx223YxGDGJVZ86Dadq7',
    email: 'pefovi5818@testbnk.comee3532ffffdfdfdxdsf',
    notificationStatus: 'ALL',
    notificationDestination: 'INTERNAL'
  }]

  let testRedisObject =
	'{"txid":"bc3b1108b97818790cc9c677420329cf5bfff18a9d9bc765ccdb28f7f2582428","version":2,"size":178,"locktime":0,"vin":[{"txid":"864959cca13f2cc052939f5cad11b75d5f0826b92a2e35854de986f1717d3911","vout":1,"scriptSig":{"asm":"304402203494c8d727e5fb2a9c4e6db9b11948d4bf31b82f40c714f0b58ad1c75d6d747302201f46aecb7aee646ef5dbf62e6254f9735a6c2ec9fb77c32f1090d9793f1d58b701","hex":"47304402203494c8d727e5fb2a9c4e6db9b11948d4bf31b82f40c714f0b58ad1c75d6d747302201f46aecb7aee646ef5dbf62e6254f9735a6c2ec9fb77c32f1090d9793f1d58b701"},"sequence":4294967295}],"vout":[{"value":0,"n":0,"scriptPubKey":{"asm":"","hex":"","type":"nonstandard"}},{"value":3784.55042408,"n":1,"scriptPubKey":{"asm":"03fad77a35592c335b077351570e26540e90935f39b54c98df9bdb135a43f24b57 OP_CHECKSIG","hex":"2103fad77a35592c335b077351570e26540e90935f39b54c98df9bdb135a43f24b57ac","reqSigs":1,"type":"pubkey","addresses":["mic54R1mfEY3keWx223YxGDGJVZ86Dadq7"]}}],"hex":"020000000111397d71f186e94d85352e2ab926085f5db711ad5c9f9352c02c3fa1cc594986010000004847304402203494c8d727e5fb2a9c4e6db9b11948d4bf31b82f40c714f0b58ad1c75d6d747302201f46aecb7aee646ef5dbf62e6254f9735a6c2ec9fb77c32f1090d9793f1d58b701ffffffff0200000000000000000068a9ad1d58000000232103fad77a35592c335b077351570e26540e90935f39b54c98df9bdb135a43f24b57ac000000000000","block_id":31436,"hash":"bc3b1108b97818790cc9c677420329cf5bfff18a9d9bc765ccdb28f7f2582428","is_coinbase":true,"time":1610465406313,"mediantime":"2021-01-12T15:30:06.313Z","input_count":1,"output_count":2,"output_total":3784.55042408,"input_total":3534.55042408,"from":["mic54R1mfEY3keWx223YxGDGJVZ86Dadq7", "mic54R1mfEY3keWx223YxGDGJVZ86Dadq6"],"to":["mic54R1mfEY3keWx223YxGDGJVZ86Dadq7"],"fee":0}';

